:100000000C9469000C9488000C9488000C9488006F
:100010000C9488000C9488000C9488000C94880040
:100020000C9488000C9488000C9488000C94880030
:100030000C9488000C94070E0C9488000C944D0EC0
:100040000C946A0F0C941B0F0C94540F0C945F0FBC
:100050000C94A30F0C9488000C9488000C948800D6
:100060000C94750E0C9488000C9488000C948800F5
:100070000C9488000C9488000C9488000C948800E0
:100080000C9488000C9488000C9488000C948800D0
:100090000C9488000C9488000C9488000C948800C0
:1000A0000C9488000C9488000C9488000C948800B0
:1000B0000C9488000C9488000C9488000C948800A0
:1000C0000C9488000C9488000C94880000020E06A2
:1000D0000C0411241FBECFEFD1E2DEBFCDBF12E072
:1000E000A0E0B2E0E4E3F6E200E00BBF02C007905C
:1000F0000D92AC30B107D9F713E0ACE0B2E001C02B
:100100001D92A73BB107E1F70E941B110C94181335
:100110000C9400002F980895289A08950DB407FEB6
:10012000FDCF8EB50895982F0DB407FEFDCF8EB587
:100130009EBD0895289808951F93CF93DF930F9243
:10014000CDB7DEB7182F69830E949A00912F906C6B
:100150009EBD89810E9493000E948E000E948C00A7
:100160000F90DF91CF911F910895CF93DF930F925E
:10017000CDB7DEB789830E949A00898180688EBDE1
:1001800080E00E9493000E948E0089830E948C0070
:1001900089810F90DF91CF9108958093470281E08C
:1001A0008093F4022091840030918500EFB7F89499
:1001B00080918400909185000396AC01421B530B03
:1001C0004617570718F4CB01820F931F009711F4BD
:1001D00081E090E00197909389008093880082E00D
:1001E00086BB80916F00826080936F00EFBF08959F
:1001F000FC01328120E0818190E0822B932B85FFEE
:1002000018C087749C7C28E881349207A9F49781F0
:1002100080E0268130E0282B392B8FB7F89440916D
:100220000702509108028FBF81E090E02417350744
:1002300029F080E090E0089580E090E0089586271E
:10024000082E8295807F8025092E982F82958F70A9
:100250000826869598278927880F880F880F80257C
:1002600008950F931F934FB7F8940091DC021091FB
:10027000DD022091DE023091DF02809184009091B6
:10028000850056B350FF08C00F5F1F4F2F4F3F4FE1
:1002900080918400909185004FBF9801112700271D
:1002A000A0E0B0E0082B192B2A2B3B2BB801C90189
:1002B0001F910F9108959FB7F894809132028F5F3C
:1002C000809332029FBF08958091B0008093B00068
:1002D0008091B60081FDFCCF08959FB7F894E82F78
:1002E000F0E0EB5DFD4F20812F3F49F421E030E04D
:1002F0004091AF03481729F020E030E002C021E030
:1003000030E02115310589F4209110032F3F19F4B5
:100310008093100306C0E091AF03F0E0EB5DFD4F6A
:1003200080838093AF0380E001C085E09FBF089584
:1003300080931903882311F484E001C081E0809345
:100340003B0286E00E946D010895CF93CFB7F894E9
:1003500080910D02823039F580910302882319F5CE
:10036000809105028F3FC9F09FEF90930302E82F21
:10037000F0E0E95CFD4F9081909305029F3F11F4FE
:10038000909304029FEF90838093340281E08093E6
:100390000D0284E00E946D0104C08093030210925C
:1003A0000D0281E001C080E0CFBF91E08927CF91AD
:1003B00008950F931F93CF93DF938C012FB7F89479
:1003C000C091F902D091FA02CE018F5E9E4F9093B8
:1003D000FA028093F9022FBF88E00E946D01CE01DE
:1003E000B8010E94A7128A5D9E4FDF91CF911F91A5
:1003F0000F9108950F931F938FB7F8949091B200C7
:1004000047B30091200210912102209122023091E5
:10041000230241FF0CC04091B3009091B2000F5FE6
:100420001F4F2F4F3F4F040F111D211D311D090F6D
:10043000111D211D311D8FBFB801C9011F910F91E1
:100440000895CF92DF92EF92FF920F931F93CF9375
:10045000CFB7F8942091B3009091B20087B32917D9
:1004600011F081FF02C0CFBF72C080913D0288238E
:10047000D1F10E94FA01DC01CB01409119025091A7
:100480001A0260911B0270911C02009115031091D9
:1004900016032091170330911803841B950BA60BAC
:1004A000B70B80179107A207B30728F010923D02FF
:1004B00046EE21E01CC0400F511F621F731F809148
:1004C000200290912102A0912202B0912302481BA8
:1004D000590B6A0B7B0B473E51056105710518F4FA
:1004E000423020F402C046EE01C042E020E0842FFA
:1004F00081509091B60093FDFCCF9091B20089138A
:10050000482F8091200290912102A0912202B09167
:1005100023026C017D010894C11CD11CE11CF11C5B
:10052000C40ED11CE11CF11CC816D906EA06FB0654
:1005300010F4482F40958091B60083FDFCCF409386
:10054000B300CFBF222319F080E00E946D01CF914C
:100550001F910F91FF90EF90DF90CF9008958091C1
:100560001003E82FF0E0EB5DFD4F908190931003B6
:100570009F3F11F49093AF039FEF908308958823DA
:1005800019F08CB5806402C08CB58F7B8CBD08954A
:10059000882319F08CB5806802C08CB58F778CBD2C
:1005A0000895CF9380E00E94BF02CFB7F894229ABB
:1005B0002398219A209A8CB580618CBD80E00E949E
:1005C000C8028CB5877F8CBD8CB58B7F8CBD81E0DC
:1005D0000E94BF028DB581608DBD8CB58C7F8CBDB6
:1005E000CFBFCF910895CF93CFB7F89480910C02ED
:1005F000882311F40E94D102CFBFCFB7F894809125
:100600000C02882359F481E080930C021092460278
:100610008BE00E946D01CFBF80E024C08091450235
:100620008F3F49F481E090E020910102222329F0DC
:1006300080E090E002C081E090E0009789F4809132
:1006400002028F3F19F41092020206C0E0910102EB
:10065000F0E0EB5BFD4F10821092010280E001C0E0
:1006600085E0CFBFCF9108958FB7F89490910002A5
:10067000992331F490910C02923011F48FBF12C083
:100680008FBF8FB7F89490910C02992369F492E090
:1006900090930C02109200028FBF0E94D102209A08
:1006A0000E948C0081E008958FBF0E94F30280E0D9
:1006B00008952F923F924F925F926F927F929F92F6
:1006C000AF92BF92CF92DF92EF92FF920F931F9360
:1006D000CF93DF935C0180910F02882309F024C13E
:1006E0008091A903853009F01FC10E94340388233B
:1006F00009F41AC180910103882309F015C1F5019D
:1007000084A582FF03C066A56F7001C060E0809180
:100710007702681731F060937702606885E00E9485
:100720009C00F501328120E0818190E0822B932BA7
:1007300087749C7CF8E881349F07B1F486E00E94BE
:10074000B50090E08F719070409142022091380284
:1007500030E0240F311D53E0359527955A95E1F788
:10076000281739070CF4E0C082E069E00E949C0081
:100770000E9431012B013C01F50184A584FF06C0D4
:1007800080818550E501C80FD11D02C0C0E0D0E0D6
:1007900081E00E94B5008F71893029F082E066E027
:1007A0000E949C00C1C08FB7F8942F9A20908400BB
:1007B000309085008FBF0E948A000E949A0080E6D8
:1007C0008EBD75010894E11CF11CF5010081802F9C
:1007D0000E9493000250073018F047E0C42E01C079
:1007E000C02E902E9C18DC2C8701F80181918F017E
:1007F0000E949300DA94C9F7CA940C2D10E00F5FA1
:100800001F4F0E0D1F1DC1018E559F4F8419950955
:100810006C01EE24D7FCE094FE2CC40CD51CE61C25
:10082000F71C2097B1F1488150E060E070E0742F30
:10083000662755274427898190E0A0E0B0E0DC01DD
:1008400099278827482B592B6A2B7B2B8B8190E08B
:10085000A0E0B0E0482B592B6A2B7B2B8A8190E0DB
:10086000A0E0B0E0BA2FA92F982F8827482B592B4A
:100870006A2B7B2B4C195D096E097F094B835A83C8
:100880006983788306C0F80181918F010E949300EB
:100890009A949920C1F70E948E000E948C0082E0F9
:1008A00066E00E949C00209779F1888190E0A0E0AA
:1008B000B0E0B82FAA2799278827498150E060E047
:1008C00070E0BA0155274427842B952BA62BB72B14
:1008D0004B8150E060E070E0842B952BA62BB72B6A
:1008E0004A8150E060E070E0762F652F542F442756
:1008F000842B952BA62BB72B8C0D9D1DAE1DBF1DDC
:100900008B839A83A983B883F50184A5826084A729
:10091000C0A6D1A6E2A6F3A686E08093A90384E050
:1009200080930F0280E001C085E0DF91CF911F919D
:100930000F91FF90EF90DF90CF90BF90AF909F907E
:100940007F906F905F904F903F902F9008952F92DF
:100950003F924F925F926F927F928F929F92AF924F
:10096000BF92CF92DF92EF92FF920F931F93CF939C
:10097000DF93CDB7DEB729970FB6F894DEBF0FBE71
:10098000CDBF29E0622E35E0B32E48E0A42E54E01E
:10099000952E60E2862E70E8772E3A822982809129
:1009A0000103882309F4C9C00E943403882309F491
:1009B000C4C08FB7F89400914302109144028FBFD6
:1009C000109201038FE00E94B50090910F029330C6
:1009D00011F0973021F4B092A903A0920F02E82EF3
:1009E00082FF47C090910F02963011F410920F02CF
:1009F00090910F029923E9F5843091F586E00E94E9
:100A0000B5008F7190913802292F26952695921B5B
:100A1000980F90933802E0911D02F0911E0294A568
:100A20009B7F986094A786A70E943101AB01BC010F
:100A3000C8010797841B950BAA2797FDA095BA2F8D
:100A4000E0911D02F0911E0224A5226024A7840FCC
:100A5000951FA61FB71F80A791A7A2A7B3A707C07E
:100A6000E0911D02F0911E0284A5857F84A7B092BB
:100A70000F02E3FE62C080910F02843009F04CC087
:100A8000B092A90310920F0280911F02833019F4D3
:100A900010921F0252C0E091B003F091B103228185
:100AA0002C831B82818190E02B813C81822B932BB4
:100AB00085FF19C087749C7C38E88134930799F4CA
:100AC00047814E831D82868190E02D813E81822B5D
:100AD000932B21E030E04FEF8F3F940711F420E09B
:100AE00030E0C90102C080E090E0882369F0809185
:100AF000F402882349F482E069E973E00E94CD00A2
:100B000082E080931F0219C010921F0210923C02D3
:100B100080E00E94980111C0853079F486E00E943F
:100B2000B50090914202292F26952695921B8F7130
:100B3000980F9093420260920F0280910F028823D7
:100B400009F467C2893009F0DCC10E949A008EBCAA
:100B50000DB407FEFDCF8EB51EBC0DB407FEFDCF54
:100B60001EB5133008F47EC0812F90E08A329105C3
:100B70000CF078C01EBCE0911D02F0911E022F0106
:100B80000894411C511C10831250173010F007E0DC
:100B900001C0012F6201202FEE24FF2480E029876D
:100BA0000E949300682FD6018D936D01C7010E94AA
:100BB0001F017C012985215089F7402F415050E0C9
:100BC0004F5F5F4F440D551DE0911D02F0911E02D5
:100BD000B281B8871F82818190E02F813885822B76
:100BE000932B877090708230910529F480911F02B9
:100BF0008230B1F50BC09FB7F89481E02091FB02E1
:100C0000233008F080E09FBF882351F1101B012F93
:100C10006A010BC00E949300682FD6018D936D016D
:100C2000C7010E941F017C01015080E0002391F761
:100C30000E949300682FC7010E941F018C0180E071
:100C40000E949300682FC8010E941F017C0100913F
:100C50001D0210911E020E948E00F80185A705C09A
:100C60000E948E0091E0E92EF12C0E948C00B0923F
:100C7000A90310920F02E114F10409F0C1C100911F
:100C80001D0210911E02D8011296BC91BA831982DE
:100C9000F801818190E029813A81822B932B877022
:100CA000907020911F028230910509F5223009F0E1
:100CB00023C1E091B003F091B103D80113969C9148
:100CC00013978381981709F017C180916F008D7F6A
:100CD00080936F001092F40284A5816084A7109223
:100CE0001F0210923C0280E00E94980105C122235D
:100CF000C9F4C8010E94F8008823A1F0B0927802DC
:100D000082E08093790210927A02F80183818093C5
:100D10007B0288E792E00E945903882319F483E05C
:100D200080931F02E0908400F0908500C8010E942B
:100D3000F800882321F02CE133E0E20EF31EF0925C
:100D4000D902E092D8028091840090918500B70189
:100D5000681B790B161617068CF480913C028823C9
:100D600051F48091F402882349F481E00E94CD007F
:100D700070923C0203C0806880933C02D8011996AF
:100D80003C90199722241896AC91B0E0A229B3297F
:100D900050912402252F30E0F901EE0FFF1FEE5F86
:100DA000FC4F808191816091F5028A179B0761F465
:100DB000F901E655FC4F8081861709F46AC06F5F20
:100DC0006093F502608328C082E093E0EAEAEE2EA9
:100DD000E3E0FE2E20E030E0E0E040E07E2F6C011A
:100DE000C70178018D01DC01522FF60181919191AB
:100DF0006F018017910791F487012093240280915D
:100E0000F502F901E655FC4F9081981709F441C0AD
:100E10008F5F8093F502808340E824C08D91F62F88
:100E2000F81B4F1710F4722F4F2F2F5F3F4F2530B5
:100E30003105D1F6D801870170932402872F90E005
:100E4000FC01EE0FFF1FEE5FFC4FB183A0836F5FCD
:100E50006093F502FC01E655FC4F6083FC01EE5403
:100E6000FC4F10828091F502982F9F779F3779F47D
:100E70004F3768F0EAEAF3E090E0382F30782081CD
:100E80002F67281330839F5F31969530C1F75091BB
:100E90002402D80113962C91852F90E0DC01AE54EA
:100EA000BC4F3C91FC01E450FD4F30FF04C08081F9
:100EB000281719F421C031603C932083EFB6F894D1
:100EC0008091FB028330B8F4E0911303E80FE33024
:100ED00008F0E350F0E0EE0FFF1FED5EFD4FC08025
:100EE0004180118300838F5F8093FB0287E00E9423
:100EF0006D010C2D142DEFBE10931E0200931D02E8
:100F00007FC0982F9150933008F065C09150923077
:100F1000A0F59091A903913069F42091F402222365
:100F200049F40E948A0083E06BE273E00E94CD00E6
:100F300082E03CC0833009F59330F9F40E94340319
:100F40008823D9F08FE00E94B500809181008064F1
:100F50008093810086BA80916F00806280936F00D9
:100F600060913302606688E00E949C0082E066E047
:100F70000E949C009092A9031BC080910F02815097
:100F80008230B0F48091A903853091F40E9434033B
:100F9000882371F082E063E00E949C0080916F00E2
:100FA0008F7D80936F001092010383E08093A903EB
:100FB00080910F02813041F49091A903933001F5A3
:100FC0002F9A8093A9031AC08230D1F48091A9038B
:100FD0008330B1F413C0873099F40E94340388231E
:100FE00079F060913302606688E00E949C008091F5
:100FF000A903853019F49092A90302C0A0920F02B0
:1010000080910F02883029F410920F0285E00E942F
:101010006D0180910F028823F1F48091A90385303E
:10102000D1F4809101038823B1F480911F028823B9
:1010300091F480913C02882371F48091F40288231A
:1010400051F480913B02823031F481E080933B0285
:1010500086E00E946D0180910F02882319F489E0D7
:101060000E946D018091F402823009F08BC01092D1
:10107000F40250914702523009F46AC0533009F427
:101080006FC0513009F07EC08091D8029091D90292
:10109000209184003091850040913C02403869F4F1
:1010A00010923C0280913B02823009F06BC0509359
:1010B0003B0286E00E946D0165C07C01E21AF30AE2
:1010C00047FF03C01E141F04ECF000913902109179
:1010D0003A0280911F028823A9F4C8010E94590393
:1010E000282F882381F4F80184A58E7F84A781E0CE
:1010F00080931F021093B1030093B00383E08093A9
:101100003C0240C025E080913C02982F9F779130AF
:1011100069F48078826080933C0280E198E00E94CC
:10112000D901BC0181E00E94CD002CC087FF0CC01A
:101130001E141F044CF470923C0281E0B701298711
:101140000E94CD00298502C010923C02822F05C06A
:1011500010921F0210923C0280E00E94980112C07F
:101160008091A903823019F45093A90309C080919A
:101170000F02863029F410920F0281E00E94B50020
:101180000E94E9088FB7F894909132029130E1F40F
:10119000109232028FBF29960FB6F894DEBF0FBEB1
:1011A000CDBFDF91CF911F910F91FF90EF90DF9016
:1011B000CF90BF90AF909F908F907F906F905F90F7
:1011C0004F903F902F90089591E0909332028FBFFF
:1011D000E6CB8FB7F89490913202992329F090686A
:1011E000909332028FBF089591E0909332028FBFA7
:1011F0000E94A70408959FB7F8948091320281500D
:1012000080933202803811F09FBF089581E080936F
:1012100032029FBF0E94A70408950F931F93CF939C
:10122000DF930F92CDB7DEB78C018FE3F801828791
:1012300080910E028F5F80930E0283830E945B0178
:1012400080913B02882371F41093F8020093F70217
:1012500081E080933B021092F60286E00E946D01CD
:1012600080E001C085E089830E94FB0889810F909E
:10127000DF91CF911F910F910895CF93DF93FA01E2
:101280002D3108F07CC0B281A0E0418150E04A2BB2
:101290005B2BDA01A774BC7C98E8A134B90739F05C
:1012A0004073507041645868418398E89283235F8B
:1012B00020833FB7F89420910702909108023FBF26
:1012C000208791872FB7F894909106022FBF9483BF
:1012D00015828387668377838FB7F89490910D0288
:1012E000992371F492E090930D02109203028FBF44
:1012F000CF010E940D09C82F882309F441C00CC0FA
:101300008FBFF0933602E0933502DFB7F8948091F7
:101310000D02882379F403C00E94A50131C081E049
:1013200080930D021092340284E00E946D01DFBFB1
:10133000C0E026C0809137028F3F49F481E090E001
:1013400020910402222329F080E090E002C081E095
:1013500090E0009789F4809105028F3F19F4109274
:10136000050206C0E0910402F0E0E95CFD4F108246
:1013700010920402C0E001C0C5E0DFBF01C0C6E0BA
:101380008C2FDF91CF9108950F931F93DC01CB0138
:101390002091E80221FF20C04091E0025091E1023B
:1013A0006091E2027091E3028C019D01041B150B18
:1013B000260B370B4091E4025091E5026091E60262
:1013C0007091E702041715072607370728F0E0EEAB
:1013D000F2E020E030E022C02091F10221FF66C05F
:1013E0004091E9025091EA026091EB027091EC02A7
:1013F000841B950BA60BB70B4091ED025091EE02AA
:101400006091EF027091F00284179507A607B70765
:1014100008F44CC0E9EEF2E021E030E0808580FF86
:1014200003C08D7F808710C080819181A281B381AC
:101430004481558166817781840F951FA61FB71F50
:1014400080839183A283B383222381F5809112024A
:10145000882361F58FEF8093AF028093B00286E01E
:101460008093B4028091DA029091DB020097F1F44C
:1014700049EA52E05093DB024093DA028FE0809316
:10148000A902809109028823B9F01092090286E02E
:101490006FEF7FEF22E00E943D09882369F081E031
:1014A000809309021092DB021092DA0281E00E941E
:1014B0006D011F910F91089581E080931202F6CF84
:1014C00010920902E091DA02F091DB02309721F0EC
:1014D0008091140380FF03C081E080930902809112
:1014E0000902882389F4978180E0668170E0682B87
:1014F000792B20812D508385AF010E943D098823DF
:1015000019F083E00E946D010895CF93DF9320913D
:101510000902222399F4C091DA02D091DB02C817A4
:10152000D90761F41092DB021092DA020E94600A7D
:1015300082E0C93AD80711F410921202DF91CF91DC
:101540000895CF93DF93CFB7F89480910C02823047
:1015500039F580910002882319F5809102028F3FAE
:10156000C9F09FEF90930002E82FF0E0EB5BFD4F96
:101570009081909302029F3F11F4909301029FEF9C
:1015800090838093460281E080930C028BE00E945E
:101590006D0104C08093000210920C0281E001C032
:1015A00080E0CFBFC1E0C827DFB7F89480910C027C
:1015B000882311F40E94BF02DFBF8C2FDF91CF91EF
:1015C00008953F924F925F926F927F928F929F9277
:1015D000AF92BF92CF92DF92EF92FF920F931F9341
:1015E000CF93DF93C82F853009F456C1863090F42D
:1015F000823009F4F3C0833030F4882309F181305C
:1016000009F0DEC25DC0833009F40EC1843009F0F8
:10161000D7C223C1883009F429C2893038F4863012
:1016200009F46EC1873009F0CBC2B5C18A3009F424
:1016300061C28A3008F4BFC28B3009F0C1C26EC2E9
:10164000809131028823C9F52FB7F8948091150352
:1016500090911603A0911703B091180340911902BD
:1016600050911A0260911B0270911C02840F951F09
:10167000A61FB71F2FBF40910C0350910D0360911F
:101680000E0370910F03109231022FB7F89431E0DE
:1016900030933D028093190290931A02A0931B028B
:1016A000B0931C02409315035093160360931703E5
:1016B000709318032FBF0E9421020E94FA0168C094
:1016C0000E94FA016B017C018FB7F89410923D02E1
:1016D0008FBF8091E80281FF24C08091E002909149
:1016E000E102A091E202B091E302B701A601481B1A
:1016F000590B6A0B7B0B8091E4029091E502A0915B
:10170000E602B091E702841B950BA60BB70B8F3F47
:101710002FEF92072FEFA2072FE7B20741F4E0E087
:1017200007C0E0E08FEF9FEFAFEFBFE701C0E1E060
:101730002091F10221FF1FC04091E9025091EA027D
:101740006091EB027091EC0297018601041B150B6E
:10175000260B370B4091ED025091EE026091EF02A3
:101760007091F002401B510B620B730B4817590725
:101770006A077B0724F0EE2309F422C202C0DB01D2
:10178000CA01181619061A061B062CF0C701B60165
:101790000E94C40915C280930C0390930D03A0937B
:1017A0000E03B0930F0321E0209331023FB7F8946A
:1017B00020933D02C0921902D0921A02E0921B02BD
:1017C000F0921C028093150390931603A0931703C5
:1017D000B09318033FBF0E942102F2C1209114036D
:1017E000222309F4EDC150911202EAEDF2E040E04B
:1017F00031E0822F832371F08081918111821082E8
:10180000632F60952623442329F462E0893A9607E2
:1018100009F450E0330F4F5F3296483051F7209370
:10182000140350931202CCC100910902E02FF0E0A2
:10183000EE0FFF1FE652FD4FC081D1811182108251
:101840000E94600A002309F0BBC182E0C93AD807B0
:1018500009F0B6C110921202B3C18FB7F8949091FB
:1018600034029093030292E090930D028FBF809117
:101870000302882309F0A4C18091350290913602B9
:101880000E940D09882309F49BC10E94A501809143
:101890003502909136027CC080913B0210923B024F
:1018A000853029F5129A119A109A0E94FA01DC01EA
:1018B000CB018093E0029093E102A093E202B09307
:1018C000E3028AEF90E0A0E0B0E08093E40290931E
:1018D000E502A093E602B093E7028091E8028E7FD2
:1018E00082608093E80281E00E946D0169C18630C8
:1018F00009F466C1873009F463C180933B0260C17B
:101900000E945B0120913B02213079F58091F60223
:101910008F5F8093F602863040F58091F7029091B8
:10192000F80230913C023323A1F43091F4023323C6
:1019300081F490933A028093390220933C028BED1C
:1019400091E10E94D901BC0181E00E94CD0080E0BC
:1019500001C085E080931903882311F483E001C05E
:1019600082E080933B02C0E003C010923B02C1E0E2
:101970000E94FB08CC2309F423C1C091F702D09147
:10198000F8028A858F3309F01BC10E94A501CE01A0
:101990000E94850A15C18FB7F8949091FB02992394
:1019A00009F4BAC0E0911303F0E0EE0FFF1FED5E03
:1019B000FD4F0190F081E02D8FBF928587819F338D
:1019C00019F5A385782F60E0268130E0262B372B90
:1019D000BFB7F8948091070290910802BFBF281703
:1019E000390749F081E090E0BFEF2F3F3B0729F036
:1019F00080E090E002C081E090E00097E1F0A63046
:101A0000D1F41298109817C0582F40E0868190E0CA
:101A1000842B952BAFB7F8942091070230910802E0
:101A2000AFBF8217930721F02FEF8F3F920719F472
:101A30008FB7F8948FBF9FB7F89480911303A82FA6
:101A4000B0E0AA0FBB1FAD5EBD4F1196FC93EE93A5
:101A50008F5F80931303833010F0109213038091F3
:101A6000FB0281508093FB029FBF95CF3FB6F89455
:101A700080913E0290913F02A0914002B0914102BC
:101A80009C01AD0160E070E080E090E0EEE4AE2EFD
:101A9000F3E8BF2ECC24DD24EE24FF2400E010E088
:101AA0000E94CE0F29013A0100E20E94A1104901D3
:101AB0005A01D301C201B695A79597958795880DD0
:101AC000991DAA1DBB1DB7FF04C0BF770196A11DBC
:101AD000B11D80933E0290933F02A0934002B093C9
:101AE00041023FBE2FB7F8949093FA028093F90217
:101AF0002FBF66C08FB7F8941092F3021092F202D3
:101B00001092A8031092A7031092110210921002D3
:101B10001092A8021092A7028FBF52C08FB7F894FC
:101B2000909146029093000292E090930C028FBF36
:101B300080910002882309F043C0209A0E948C0003
:101B40008091A903882309F039C00EEF11E0C80184
:101B5000019701960197E1F716980E948A0086E0A6
:101B600090E0019701960197E1F7169A83E060E013
:101B70000E949C0082E068E00E949C00C8010197DE
:101B800001960197E1F78EE06DE40E949C0089E0E8
:101B900067EC0E949C0085E060E80E949C00109227
:101BA0007702C093330288E06BE60E949C002F9A74
:101BB00081E08093A9030E94A10A02C00E94E90863
:101BC000DF91CF911F910F91FF90EF90DF90CF9019
:101BD000BF90AF909F908F907F906F905F904F904D
:101BE0003F900895809110038F3F41F00E94AF0213
:101BF0008F3F31F00E94E10A81E0089580E008956E
:101C000080E008958FB7F89408958FBF08951F92CC
:101C10000F920FB60F920BB60F9211242F933F9392
:101C20004F935F936F937F938F939F93AF93BF93E4
:101C3000EF93FF930E9464014091B30050E04F5F27
:101C40005F4F60E070E08091200290912102A091AE
:101C50002202B0912302840F951FA61FB71F809305
:101C6000200290932102A0932202B0932302789441
:101C70000E942102FF91EF91BF91AF919F918F91AF
:101C80007F916F915F914F913F912F910F900BBE7C
:101C90000F900FBE0F901F9018951F920F920FB6C6
:101CA0000F920BB60F9211242F933F934F935F9394
:101CB0006F937F938F939F93AF93BF93EF93FF9314
:101CC0000E946401FF91EF91BF91AF919F918F911D
:101CD0007F916F915F914F913F912F910F900BBE2C
:101CE0000F900FBE0F901F9018951F920F920FB676
:101CF0000F920BB60F9211240F931F932F933F93C4
:101D00004F935F936F937F938F939F93AF93BF9303
:101D1000CF93DF93EF93FF932EB58091F2029091D2
:101D2000F302009739F0E091A702F091A802E80FC2
:101D3000F91F20838091A7029091A80201969093A9
:101D4000A8028093A70280E00E94C802C091A70267
:101D5000D091A8028091100290911102C817D90762
:101D600008F041C00091A7031091A8034091F2022E
:101D70005091F3029E01265F3F4F82179307E0F4D4
:101D80009C011AC00115110549F0F801EC0FFD1F67
:101D900080818EBD0DB407FEFDCF04C01EBC0DB406
:101DA00007FEFDCF8EB54115510521F0FA01EC0F6C
:101DB000FD1F8083219602C021503040C217D307F7
:101DC00008F381E00E94C8020115110531F0F80105
:101DD000EC0FFD1F80818EBD01C01EBCD093A802F8
:101DE000C093A70211C01092F3021092F202109257
:101DF000A8031092A70310921102109210021092E1
:101E0000A8021092A7028EB5FF91EF91DF91CF91BA
:101E1000BF91AF919F918F917F916F915F914F9102
:101E20003F912F911F910F910F900BBE0F900FBEFE
:101E30000F901F90189578941F920F920FB60F92E3
:101E40000BB60F9211242F933F934F935F936F9391
:101E50007F938F939F93AF93BF93EF93FF93809163
:101E60006F008D7F80936F0078948FB7F894909176
:101E7000F402913019F492E09093F4028FBF0E9423
:101E8000E908FF91EF91BF91AF919F918F917F9161
:101E90006F915F914F913F912F910F900BBE0F90DB
:101EA0000FBE0F901F90189578941F920F920FB647
:101EB0000F9211240F900FBE0F901F9018957894D9
:101EC0001F920F920FB60F9211240F900FBE0F901A
:101ED0001F90189578941F920F920FB60F920BB621
:101EE0000F9211242F933F934F935F936F937F93A0
:101EF0008F939F93AF93BF93EF93FF93E6E8F0E048
:101F000080819181808191812FB7F89490934402D0
:101F10008093430281E0809301032FBF0E94E90870
:101F2000FF91EF91BF91AF919F918F917F916F91B1
:101F30005F914F913F912F910F900BBE0F900FBE6D
:101F40000F901F90189578941F920F920FB60F92D2
:101F500011242F938F939F93AF93BF932FB7F89430
:101F60008091DC029091DD02A091DE02B091DF024F
:101F70000196A11DB11D8093DC029093DD02A09318
:101F8000DE02B093DF022FBFBF91AF919F918F917F
:101F90002F910F900FBE0F901F901895A0E3B0E007
:101FA000E4EDFFE00C94DC12298F3A8F4B8F5C8FAD
:101FB0006D8F7E8F8F8F98A3A98ABA8ACB8ADC8A8D
:101FC000ED8AFE8A0F8B188F098D1A8D2B8D3C8D13
:101FD00009A31AA32BA33CA3680179018FEF9FEFFC
:101FE000A0E0B0E0C822D922EA22FB228901222700
:101FF000332709A71AA72BA73CA709891A892B8978
:102000003C890DA31EA32FA338A74801590188229C
:102010009922AA22BB22290166247724C501B40192
:10202000A70196010E94BB126DA77EA78FA798AB50
:10203000C301B2010E94BB126B017C01C501B40156
:1020400029A53AA54BA55CA50E94BB124B015C01DA
:10205000C301B2010E94BB12AB01BC01C80CD91C68
:10206000EA1CFB1C0DA51EA52FA538A9C901AA278E
:10207000BB27C80ED91EEA1EFB1EC814D904EA04E9
:10208000FB0420F4405050406F4F7F4FC701AA27F8
:10209000BB27840F951FA61FB71F8D839E83AF8319
:1020A000B8877601DD24CC244DA55EA56FA578A95F
:1020B00060707070C40ED51EE61EF71EC982DA82EB
:1020C000EB82FC821C2D0A818B804C808D878E8157
:1020D0008E878F818F878885888B2D893E894F8950
:1020E000588D69A17AA18BA19CA10E94BB126B01A2
:1020F0007C012D8D3E8D4F8D58A16DA17EA18FA1AC
:1021000098A50E94BB12DC01CB01C80ED91EEA1EA5
:10211000FB1E8D859E85AF85B8898C0D9D1DAE1DDE
:10212000BF1D8D879E87AF87B88B682F7E85212F37
:10213000302F482D542D8F859889E096E0E10C943E
:10214000F812CF92DF92EF92FF920F93CF93DF932B
:10215000CDB7DEB760970FB6F894DEBF0FBECDBF28
:10216000002309F45AC029873A874B875C876D871B
:102170007E878F87988B80E2801B4D855E856F857B
:1021800078891816B4F01D821E821F82188699273E
:1021900087FD9095909581959F4F04C076956795A2
:1021A000579547958A95D2F749835A836B837C83E9
:1021B0002CC06A017B01002E04C0F694E794D794EA
:1021C000C7940A94D2F7CD82DE82EF82F8866A0144
:1021D0007B0104C0CC0CDD1CEE1CFF1C8A95D2F7E1
:1021E000D701C60149855A856B857C8504C07695E3
:1021F0006795579547950A95D2F7842B952BA62B73
:10220000B72B89839A83AB83BC8329813A814B8125
:102210005C816D817E818F81988560960FB6F89480
:10222000DEBF0FBECDBFDF91CF910F91FF90EF903A
:10223000DF90CF900895CFB7F89414BE88E10FB621
:10224000F89480936000109260000FBE85E292E0E7
:102250006FEF70E04CE050E00E9411138FEF80931D
:1022600010038093AF0356985E9854985C988091C1
:102270006F008F7D80936F00209A0E948C00279AB8
:102280000E948A000E9A169A88E492E090931E02A9
:1022900080931D02109242028AE58093380281E009
:1022A0008093810080E28093B60083E08093B10048
:1022B00080918400909185004AE701C0C901209176
:1022C0008400309185002817390708F441504423D1
:1022D000A9F78091B2009091B2009817E1F3209194
:1022E0008400309185008091B2009091B2009817DF
:1022F000E1F380918400909185004096821B930BBE
:1023000045E0969587954A95E1F79093120380935F
:1023100011031092B100109281001092B600109239
:10232000B20010928500109284008FEF87BB86BBAD
:102330008091B6008571E1F70A9A099A089A129A73
:10234000119A109A18B88FEF87B90C9814981092B8
:1023500085001092840080916F00816080936F00EF
:1023600080918100887F8260809381000E94F20DBD
:102370008823E1F7DFEFD09345020E94F3028091BA
:102380000A0290910B02AC014F5F5F4F60E070E07A
:1023900040933E0250933F0260934002709341028B
:1023A0002AE133E03093140220931302215D3F4F62
:1023B000309316022093150228E733E03093180279
:1023C000209317022FEF3FEF309303032093020374
:1023D00030930503209304033093070320930603EF
:1023E000309309032093080330930B0320930A03CF
:1023F0008295807F80930E02D09337028091B60041
:1024000080628093B6008091B60081FDFCCF82E0AF
:102410008093B0008091B60080FDFCCF83E0809374
:10242000B1008091B60083FDFCCF86EE8093B300AF
:10243000809170008260809370000E9421020E944F
:10244000F20D8823E1F7CFBF78940E945B01809161
:102450003B028823B9F480910F02882399F480917C
:10246000A903813029F48091F402882359F402C031
:10247000853041F083E080930F020E94E90885E0F7
:1024800080933B020E94FB08CFB7F89452C0809122
:102490006E008670E9F480916F008E72C9F48091AD
:1024A00071008E72A9F40CB407FC12C08091C100B7
:1024B000887171F48091C900887151F48091BC00D9
:1024C00082FD06C080917A0087FF04C021E003C02E
:1024D00020E001C025E08091700090E08370907052
:1024E000009781F08091B6008A71E1F78091B30086
:1024F0009091B200891B8C3038F08091B200853FFA
:1025000028F002C0E5E003C0E2E001C0E3E083B7E9
:102510002E1708F4E22FF0E0E453FF4FE491807FA0
:1025200081608E2B83BF78948895F89483B78E7FD3
:1025300083BF809110038F3F09F4A9CF0E94AF029F
:102540008F3F09F4A4CFCFBF0E94E10A9DCFAA1B01
:10255000BB1B51E107C0AA1FBB1FA617B70710F08E
:10256000A61BB70B881F991F5A95A9F780959095C0
:10257000BC01CD010895629FD001739FF001829F3D
:10258000E00DF11D649FE00DF11D929FF00D839F02
:10259000F00D749FF00D659FF00D9927729FB00D9F
:1025A000E11DF91F639FB00DE11DF91FBD01CF01B2
:1025B000112408952F923F924F925F926F927F92D3
:1025C0008F929F92AF92BF92CF92DF92EF92FF9243
:1025D0000F931F93CF93DF93CDB7DEB7CA1BDB0BEF
:1025E0000FB6F894DEBF0FBECDBF09942A88398894
:1025F00048885F846E847D848C849B84AA84B9849B
:10260000C884DF80EE80FD800C811B81AA81B981A6
:10261000CE0FD11D0FB6F894DEBF0FBECDBFED01BA
:102620000895DC0101C06D9341505040E0F70895DA
:04263000F894FFCF4C
:0C263400FFFFFFFFFFFF2201000101007B
:00000001FF
